{
  "contractName": "EcommerceStore",
  "abi": [
    {
      "constant": true,
      "inputs": [],
      "name": "productIndex",
      "outputs": [
        {
          "name": "",
          "type": "uint256"
        }
      ],
      "payable": false,
      "stateMutability": "view",
      "type": "function"
    },
    {
      "inputs": [],
      "payable": false,
      "stateMutability": "nonpayable",
      "type": "constructor"
    },
    {
      "constant": false,
      "inputs": [
        {
          "name": "_name",
          "type": "string"
        },
        {
          "name": "_category",
          "type": "string"
        },
        {
          "name": "_imageLink",
          "type": "string"
        },
        {
          "name": "_descLink",
          "type": "string"
        },
        {
          "name": "_auctionStartTime",
          "type": "uint256"
        },
        {
          "name": "_auctionEndTime",
          "type": "uint256"
        },
        {
          "name": "_startPrice",
          "type": "uint256"
        },
        {
          "name": "_productCondition",
          "type": "uint256"
        }
      ],
      "name": "addProductToStore",
      "outputs": [],
      "payable": false,
      "stateMutability": "nonpayable",
      "type": "function"
    },
    {
      "constant": true,
      "inputs": [
        {
          "name": "_productId",
          "type": "uint256"
        }
      ],
      "name": "getProduct",
      "outputs": [
        {
          "name": "",
          "type": "uint256"
        },
        {
          "name": "",
          "type": "string"
        },
        {
          "name": "",
          "type": "string"
        },
        {
          "name": "",
          "type": "string"
        },
        {
          "name": "",
          "type": "string"
        },
        {
          "name": "",
          "type": "uint256"
        },
        {
          "name": "",
          "type": "uint256"
        },
        {
          "name": "",
          "type": "uint256"
        },
        {
          "name": "",
          "type": "uint8"
        },
        {
          "name": "",
          "type": "uint8"
        }
      ],
      "payable": false,
      "stateMutability": "view",
      "type": "function"
    },
    {
      "constant": false,
      "inputs": [
        {
          "name": "_productId",
          "type": "uint256"
        },
        {
          "name": "_bid",
          "type": "bytes32"
        }
      ],
      "name": "bid",
      "outputs": [
        {
          "name": "",
          "type": "bool"
        }
      ],
      "payable": true,
      "stateMutability": "payable",
      "type": "function"
    },
    {
      "constant": false,
      "inputs": [
        {
          "name": "_productId",
          "type": "uint256"
        },
        {
          "name": "_amount",
          "type": "string"
        },
        {
          "name": "_secret",
          "type": "string"
        }
      ],
      "name": "revealBid",
      "outputs": [],
      "payable": false,
      "stateMutability": "nonpayable",
      "type": "function"
    },
    {
      "constant": false,
      "inputs": [
        {
          "name": "_productId",
          "type": "uint256"
        }
      ],
      "name": "finalizeAuction",
      "outputs": [],
      "payable": false,
      "stateMutability": "nonpayable",
      "type": "function"
    },
    {
      "constant": false,
      "inputs": [
        {
          "name": "_productId",
          "type": "uint256"
        }
      ],
      "name": "releaseAmountToSeller",
      "outputs": [],
      "payable": false,
      "stateMutability": "nonpayable",
      "type": "function"
    },
    {
      "constant": false,
      "inputs": [
        {
          "name": "_productId",
          "type": "uint256"
        }
      ],
      "name": "refundAmountToBuyer",
      "outputs": [],
      "payable": false,
      "stateMutability": "nonpayable",
      "type": "function"
    },
    {
      "constant": true,
      "inputs": [
        {
          "name": "_productId",
          "type": "uint256"
        }
      ],
      "name": "escrowAddressForProduct",
      "outputs": [
        {
          "name": "",
          "type": "address"
        }
      ],
      "payable": false,
      "stateMutability": "view",
      "type": "function"
    },
    {
      "constant": true,
      "inputs": [
        {
          "name": "_productId",
          "type": "uint256"
        }
      ],
      "name": "escrowInfo",
      "outputs": [
        {
          "name": "",
          "type": "address"
        },
        {
          "name": "",
          "type": "address"
        },
        {
          "name": "",
          "type": "address"
        },
        {
          "name": "",
          "type": "bool"
        },
        {
          "name": "",
          "type": "uint256"
        },
        {
          "name": "",
          "type": "uint256"
        }
      ],
      "payable": false,
      "stateMutability": "view",
      "type": "function"
    },
    {
      "constant": true,
      "inputs": [
        {
          "name": "_productId",
          "type": "uint256"
        }
      ],
      "name": "highestBidderInfo",
      "outputs": [
        {
          "name": "",
          "type": "address"
        },
        {
          "name": "",
          "type": "uint256"
        },
        {
          "name": "",
          "type": "uint256"
        }
      ],
      "payable": false,
      "stateMutability": "view",
      "type": "function"
    },
    {
      "constant": true,
      "inputs": [
        {
          "name": "_productId",
          "type": "uint256"
        }
      ],
      "name": "totalBids",
      "outputs": [
        {
          "name": "",
          "type": "uint256"
        }
      ],
      "payable": false,
      "stateMutability": "view",
      "type": "function"
    }
  ],
  "bytecode": "0x6060604052341561000f57600080fd5b60008081905550613b0b806100256000396000f300606060405260043610620000c7576000357c0100000000000000000000000000000000000000000000000000000000900463ffffffff16806328e3d19014620000cc5780634389754a146200010657806383560525146200016c5780639a3a7c691462000251578063a508b9551462000277578063b9db15b414620003c4578063c897d5a614620005fb578063cc352db71462000627578063ce818ea9146200064d578063e808386314620006c1578063ea1591bb14620006e7578063f85f196e1462000726575b600080fd5b3415620000d857600080fd5b620000f06004808035906020019091905050620007d2565b6040518082815260200191505060405180910390f35b34156200011257600080fd5b6200012a600480803590602001909190505062000c10565b604051808273ffffffffffffffffffffffffffffffffffffffff1673ffffffffffffffffffffffffffffffffffffffff16815260200191505060405180910390f35b34156200017857600080fd5b62000190600480803590602001909190505062000c4d565b604051808773ffffffffffffffffffffffffffffffffffffffff1673ffffffffffffffffffffffffffffffffffffffff1681526020018673ffffffffffffffffffffffffffffffffffffffff1673ffffffffffffffffffffffffffffffffffffffff1681526020018573ffffffffffffffffffffffffffffffffffffffff1673ffffffffffffffffffffffffffffffffffffffff16815260200184151515158152602001838152602001828152602001965050505050505060405180910390f35b34156200025d57600080fd5b62000275600480803590602001909190505062000d38565b005b34156200028357600080fd5b620003c2600480803590602001908201803590602001908080601f0160208091040260200160405190810160405280939291908181526020018383808284378201915050505050509190803590602001908201803590602001908080601f0160208091040260200160405190810160405280939291908181526020018383808284378201915050505050509190803590602001908201803590602001908080601f0160208091040260200160405190810160405280939291908181526020018383808284378201915050505050509190803590602001908201803590602001908080601f0160208091040260200160405190810160405280939291908181526020018383808284378201915050505050509190803590602001909190803590602001909190803590602001909190803590602001909190505062000e1a565b005b3415620003d057600080fd5b620003e86004808035906020019091905050620010fb565b604051808b8152602001806020018060200180602001806020018a81526020018981526020018881526020018760028111156200042157fe5b60ff1681526020018660018111156200043657fe5b60ff16815260200185810385528e818151815260200191508051906020019080838360005b83811015620004785780820151818401526020810190506200045b565b50505050905090810190601f168015620004a65780820380516001836020036101000a031916815260200191505b5085810384528d818151815260200191508051906020019080838360005b83811015620004e1578082015181840152602081019050620004c4565b50505050905090810190601f1680156200050f5780820380516001836020036101000a031916815260200191505b5085810383528c818151815260200191508051906020019080838360005b838110156200054a5780820151818401526020810190506200052d565b50505050905090810190601f168015620005785780820380516001836020036101000a031916815260200191505b5085810382528b818151815260200191508051906020019080838360005b83811015620005b357808201518184015260208101905062000596565b50505050905090810190601f168015620005e15780820380516001836020036101000a031916815260200191505b509e50505050505050505050505050505060405180910390f35b34156200060757600080fd5b62000611620015bd565b6040518082815260200191505060405180910390f35b34156200063357600080fd5b6200064b6004808035906020019091905050620015c3565b005b34156200065957600080fd5b620006716004808035906020019091905050620016a5565b604051808473ffffffffffffffffffffffffffffffffffffffff1673ffffffffffffffffffffffffffffffffffffffff168152602001838152602001828152602001935050505060405180910390f35b3415620006cd57600080fd5b620006e5600480803590602001909190505062001af8565b005b6200070c60048080359060200190919080356000191690602001909190505062001ef1565b604051808215151515815260200191505060405180910390f35b34156200073257600080fd5b620007d0600480803590602001909190803590602001908201803590602001908080601f0160208091040260200160405190810160405280939291908181526020018383808284378201915050505050509190803590602001908201803590602001908080601f0160208091040260200160405190810160405280939291908181526020018383808284378201915050505050509190505062002188565b005b6000620007de620028e1565b600160006002600086815260200190815260200160002060009054906101000a900473ffffffffffffffffffffffffffffffffffffffff1673ffffffffffffffffffffffffffffffffffffffff1673ffffffffffffffffffffffffffffffffffffffff16815260200190815260200160002060008481526020019081526020016000206101c0604051908101604052908160008201548152602001600182018054600181600116156101000203166002900480601f016020809104026020016040519081016040528092919081815260200182805460018160011615610100020316600290048015620009155780601f10620008e95761010080835404028352916020019162000915565b820191906000526020600020905b815481529060010190602001808311620008f757829003601f168201915b50505050508152602001600282018054600181600116156101000203166002900480601f016020809104026020016040519081016040528092919081815260200182805460018160011615610100020316600290048015620009bb5780601f106200098f57610100808354040283529160200191620009bb565b820191906000526020600020905b8154815290600101906020018083116200099d57829003601f168201915b50505050508152602001600382018054600181600116156101000203166002900480601f01602080910402602001604051908101604052809291908181526020018280546001816001161561010002031660029004801562000a615780601f1062000a355761010080835404028352916020019162000a61565b820191906000526020600020905b81548152906001019060200180831162000a4357829003601f168201915b50505050508152602001600482018054600181600116156101000203166002900480601f01602080910402602001604051908101604052809291908181526020018280546001816001161561010002031660029004801562000b075780601f1062000adb5761010080835404028352916020019162000b07565b820191906000526020600020905b81548152906001019060200180831162000ae957829003601f168201915b505050505081526020016005820154815260200160068201548152602001600782015481526020016008820160009054906101000a900473ffffffffffffffffffffffffffffffffffffffff1673ffffffffffffffffffffffffffffffffffffffff1673ffffffffffffffffffffffffffffffffffffffff16815260200160098201548152602001600a8201548152602001600b8201548152602001600c820160009054906101000a900460ff16600281111562000bc157fe5b600281111562000bcd57fe5b8152602001600c820160019054906101000a900460ff16600181111562000bf057fe5b600181111562000bfc57fe5b815250509050806101600151915050919050565b60006003600083815260200190815260200160002060009054906101000a900473ffffffffffffffffffffffffffffffffffffffff169050919050565b6000806000806000806003600088815260200190815260200160002060009054906101000a900473ffffffffffffffffffffffffffffffffffffffff1673ffffffffffffffffffffffffffffffffffffffff1663f3d259046040518163ffffffff167c010000000000000000000000000000000000000000000000000000000002815260040160c060405180830381600087803b151562000ced57600080fd5b5af1151562000cfb57600080fd5b5050506040518051906020018051906020018051906020018051906020018051906020018051905095509550955095509550955091939550919395565b6003600082815260200190815260200160002060009054906101000a900473ffffffffffffffffffffffffffffffffffffffff1673ffffffffffffffffffffffffffffffffffffffff166358aad10b336040518263ffffffff167c0100000000000000000000000000000000000000000000000000000000028152600401808273ffffffffffffffffffffffffffffffffffffffff1673ffffffffffffffffffffffffffffffffffffffff168152602001915050600060405180830381600087803b151562000e0657600080fd5b5af1151562000e1457600080fd5b50505050565b62000e24620028e1565b838510151562000e3357600080fd5b600160008082825401925050819055506101c06040519081016040528060005481526020018a8152602001898152602001888152602001878152602001868152602001858152602001848152602001600073ffffffffffffffffffffffffffffffffffffffff1681526020016000815260200160008152602001600081526020016000600281111562000ec257fe5b815260200183600181111562000ed457fe5b600181111562000ee057fe5b815250905080600160003373ffffffffffffffffffffffffffffffffffffffff1673ffffffffffffffffffffffffffffffffffffffff16815260200190815260200160002060008054815260200190815260200160002060008201518160000155602082015181600101908051906020019062000f5f9291906200299f565b50604082015181600201908051906020019062000f7e9291906200299f565b50606082015181600301908051906020019062000f9d9291906200299f565b50608082015181600401908051906020019062000fbc9291906200299f565b5060a0820151816005015560c0820151816006015560e082015181600701556101008201518160080160006101000a81548173ffffffffffffffffffffffffffffffffffffffff021916908373ffffffffffffffffffffffffffffffffffffffff160217905550610120820151816009015561014082015181600a015561016082015181600b015561018082015181600c0160006101000a81548160ff021916908360028111156200106a57fe5b02179055506101a082015181600c0160016101000a81548160ff021916908360018111156200109557fe5b021790555090505033600260008054815260200190815260200160002060006101000a81548173ffffffffffffffffffffffffffffffffffffffff021916908373ffffffffffffffffffffffffffffffffffffffff160217905550505050505050505050565b60006200110762002a26565b6200111162002a26565b6200111b62002a26565b6200112562002a26565b600080600080600062001137620028e1565b60016000600260008f815260200190815260200160002060009054906101000a900473ffffffffffffffffffffffffffffffffffffffff1673ffffffffffffffffffffffffffffffffffffffff1673ffffffffffffffffffffffffffffffffffffffff16815260200190815260200160002060008d81526020019081526020016000206101c0604051908101604052908160008201548152602001600182018054600181600116156101000203166002900480601f0160208091040260200160405190810160405280929190818152602001828054600181600116156101000203166002900480156200126e5780601f1062001242576101008083540402835291602001916200126e565b820191906000526020600020905b8154815290600101906020018083116200125057829003601f168201915b50505050508152602001600282018054600181600116156101000203166002900480601f016020809104026020016040519081016040528092919081815260200182805460018160011615610100020316600290048015620013145780601f10620012e85761010080835404028352916020019162001314565b820191906000526020600020905b815481529060010190602001808311620012f657829003601f168201915b50505050508152602001600382018054600181600116156101000203166002900480601f016020809104026020016040519081016040528092919081815260200182805460018160011615610100020316600290048015620013ba5780601f106200138e57610100808354040283529160200191620013ba565b820191906000526020600020905b8154815290600101906020018083116200139c57829003601f168201915b50505050508152602001600482018054600181600116156101000203166002900480601f016020809104026020016040519081016040528092919081815260200182805460018160011615610100020316600290048015620014605780601f10620014345761010080835404028352916020019162001460565b820191906000526020600020905b8154815290600101906020018083116200144257829003601f168201915b505050505081526020016005820154815260200160068201548152602001600782015481526020016008820160009054906101000a900473ffffffffffffffffffffffffffffffffffffffff1673ffffffffffffffffffffffffffffffffffffffff1673ffffffffffffffffffffffffffffffffffffffff16815260200160098201548152602001600a8201548152602001600b8201548152602001600c820160009054906101000a900460ff1660028111156200151a57fe5b60028111156200152657fe5b8152602001600c820160019054906101000a900460ff1660018111156200154957fe5b60018111156200155557fe5b815250509050806000015181602001518260400151836060015184608001518560a001518660c001518760e00151886101800151896101a001518898508797508696508595509a509a509a509a509a509a509a509a509a509a50509193959799509193959799565b60005481565b6003600082815260200190815260200160002060009054906101000a900473ffffffffffffffffffffffffffffffffffffffff1673ffffffffffffffffffffffffffffffffffffffff1663a97d1b10336040518263ffffffff167c0100000000000000000000000000000000000000000000000000000000028152600401808273ffffffffffffffffffffffffffffffffffffffff1673ffffffffffffffffffffffffffffffffffffffff168152602001915050600060405180830381600087803b15156200169157600080fd5b5af115156200169f57600080fd5b50505050565b6000806000620016b4620028e1565b600160006002600088815260200190815260200160002060009054906101000a900473ffffffffffffffffffffffffffffffffffffffff1673ffffffffffffffffffffffffffffffffffffffff1673ffffffffffffffffffffffffffffffffffffffff16815260200190815260200160002060008681526020019081526020016000206101c0604051908101604052908160008201548152602001600182018054600181600116156101000203166002900480601f016020809104026020016040519081016040528092919081815260200182805460018160011615610100020316600290048015620017eb5780601f10620017bf57610100808354040283529160200191620017eb565b820191906000526020600020905b815481529060010190602001808311620017cd57829003601f168201915b50505050508152602001600282018054600181600116156101000203166002900480601f016020809104026020016040519081016040528092919081815260200182805460018160011615610100020316600290048015620018915780601f10620018655761010080835404028352916020019162001891565b820191906000526020600020905b8154815290600101906020018083116200187357829003601f168201915b50505050508152602001600382018054600181600116156101000203166002900480601f016020809104026020016040519081016040528092919081815260200182805460018160011615610100020316600290048015620019375780601f106200190b5761010080835404028352916020019162001937565b820191906000526020600020905b8154815290600101906020018083116200191957829003601f168201915b50505050508152602001600482018054600181600116156101000203166002900480601f016020809104026020016040519081016040528092919081815260200182805460018160011615610100020316600290048015620019dd5780601f10620019b157610100808354040283529160200191620019dd565b820191906000526020600020905b815481529060010190602001808311620019bf57829003601f168201915b505050505081526020016005820154815260200160068201548152602001600782015481526020016008820160009054906101000a900473ffffffffffffffffffffffffffffffffffffffff1673ffffffffffffffffffffffffffffffffffffffff1673ffffffffffffffffffffffffffffffffffffffff16815260200160098201548152602001600a8201548152602001600b8201548152602001600c820160009054906101000a900460ff16600281111562001a9757fe5b600281111562001aa357fe5b8152602001600c820160019054906101000a900460ff16600181111562001ac657fe5b600181111562001ad257fe5b815250509050806101000151816101200151826101400151935093509350509193909250565b6000806000600160006002600087815260200190815260200160002060009054906101000a900473ffffffffffffffffffffffffffffffffffffffff1673ffffffffffffffffffffffffffffffffffffffff1673ffffffffffffffffffffffffffffffffffffffff1681526020019081526020016000206000858152602001908152602001600020925082600601544211151562001b9557600080fd5b6000600281111562001ba357fe5b83600c0160009054906101000a900460ff16600281111562001bc157fe5b14151562001bce57600080fd5b3373ffffffffffffffffffffffffffffffffffffffff168360080160009054906101000a900473ffffffffffffffffffffffffffffffffffffffff1673ffffffffffffffffffffffffffffffffffffffff161415151562001c2e57600080fd5b3373ffffffffffffffffffffffffffffffffffffffff166002600086815260200190815260200160002060009054906101000a900473ffffffffffffffffffffffffffffffffffffffff1673ffffffffffffffffffffffffffffffffffffffff161415151562001c9d57600080fd5b600083600b0154141562001cd857600283600c0160006101000a81548160ff0219169083600281111562001ccd57fe5b021790555062001eeb565b82600a0154848460080160009054906101000a900473ffffffffffffffffffffffffffffffffffffffff166002600088815260200190815260200160002060009054906101000a900473ffffffffffffffffffffffffffffffffffffffff163362001d4262002a3a565b808581526020018473ffffffffffffffffffffffffffffffffffffffff1673ffffffffffffffffffffffffffffffffffffffff1681526020018373ffffffffffffffffffffffffffffffffffffffff1673ffffffffffffffffffffffffffffffffffffffff1681526020018273ffffffffffffffffffffffffffffffffffffffff1673ffffffffffffffffffffffffffffffffffffffff1681526020019450505050506040518091039082f080151562001dfb57600080fd5b90509150816003600086815260200190815260200160002060006101000a81548173ffffffffffffffffffffffffffffffffffffffff021916908373ffffffffffffffffffffffffffffffffffffffff160217905550600183600c0160006101000a81548160ff0219169083600281111562001e7357fe5b021790555082600a015483600901540390508260080160009054906101000a900473ffffffffffffffffffffffffffffffffffffffff1673ffffffffffffffffffffffffffffffffffffffff166108fc829081150290604051600060405180830381858888f19350505050151562001eea57600080fd5b5b50505050565b600080600160006002600087815260200190815260200160002060009054906101000a900473ffffffffffffffffffffffffffffffffffffffff1673ffffffffffffffffffffffffffffffffffffffff1673ffffffffffffffffffffffffffffffffffffffff168152602001908152602001600020600085815260200190815260200160002090508060050154421015151562001f8d57600080fd5b8060060154421115151562001fa157600080fd5b80600701543411151562001fb457600080fd5b600081600d0160003373ffffffffffffffffffffffffffffffffffffffff1673ffffffffffffffffffffffffffffffffffffffff1681526020019081526020016000206000856000191660001916815260200190815260200160002060000160009054906101000a900473ffffffffffffffffffffffffffffffffffffffff1673ffffffffffffffffffffffffffffffffffffffff161415156200205757600080fd5b6080604051908101604052803373ffffffffffffffffffffffffffffffffffffffff1681526020018581526020013481526020016000151581525081600d0160003373ffffffffffffffffffffffffffffffffffffffff1673ffffffffffffffffffffffffffffffffffffffff1681526020019081526020016000206000856000191660001916815260200190815260200160002060008201518160000160006101000a81548173ffffffffffffffffffffffffffffffffffffffff021916908373ffffffffffffffffffffffffffffffffffffffff160217905550602082015181600101556040820151816002015560608201518160030160006101000a81548160ff021916908315150217905550905050600181600b0160008282540192505081905550600191505092915050565b6000806200219562002a4b565b60008060016000600260008b815260200190815260200160002060009054906101000a900473ffffffffffffffffffffffffffffffffffffffff1673ffffffffffffffffffffffffffffffffffffffff1673ffffffffffffffffffffffffffffffffffffffff168152602001908152602001600020600089815260200190815260200160002094508460060154421115156200223057600080fd5b86866040518083805190602001908083835b60208310151562002269578051825260208201915060208101905060208303925062002242565b6001836020036101000a03801982511681845116808217855250505050505090500182805190602001908083835b602083101515620022be578051825260208201915060208101905060208303925062002297565b6001836020036101000a038019825116818451168082178552505050505050905001925050506040518091039020935084600d0160003373ffffffffffffffffffffffffffffffffffffffff1673ffffffffffffffffffffffffffffffffffffffff16815260200190815260200160002060008560001916600019168152602001908152602001600020608060405190810160405290816000820160009054906101000a900473ffffffffffffffffffffffffffffffffffffffff1673ffffffffffffffffffffffffffffffffffffffff1673ffffffffffffffffffffffffffffffffffffffff16815260200160018201548152602001600282015481526020016003820160009054906101000a900460ff16151515158152505092506000836000015173ffffffffffffffffffffffffffffffffffffffff161115156200240557600080fd5b60001515836060015115151415156200241d57600080fd5b6200242887620026c8565b90508083604001511015620024445782604001519150620025fc565b60008560080160009054906101000a900473ffffffffffffffffffffffffffffffffffffffff1673ffffffffffffffffffffffffffffffffffffffff161415620024f057338560080160006101000a81548173ffffffffffffffffffffffffffffffffffffffff021916908373ffffffffffffffffffffffffffffffffffffffff160217905550808560090181905550846007015485600a0181905550808360400151039150620025fb565b8460090154811115620025ce57846009015485600a01819055508460080160009054906101000a900473ffffffffffffffffffffffffffffffffffffffff1673ffffffffffffffffffffffffffffffffffffffff166108fc86600901549081150290604051600060405180830381858888f1935050505015156200257357600080fd5b338560080160006101000a81548173ffffffffffffffffffffffffffffffffffffffff021916908373ffffffffffffffffffffffffffffffffffffffff160217905550808560090181905550808360400151039150620025fa565b84600a0154811115620025f1578085600a018190555082604001519150620025f9565b826040015191505b5b5b5b6000821115620026be573373ffffffffffffffffffffffffffffffffffffffff166108fc839081150290604051600060405180830381858888f1935050505015156200264757600080fd5b600185600d0160003373ffffffffffffffffffffffffffffffffffffffff1673ffffffffffffffffffffffffffffffffffffffff1681526020019081526020016000206000866000191660001916815260200190815260200160002060030160006101000a81548160ff0219169083151502179055505b5050505050505050565b6000620026d462002a8c565b60008084925060009150600090505b8251811015620028d65760307f01000000000000000000000000000000000000000000000000000000000000000283828151811015156200272057fe5b9060200101517f010000000000000000000000000000000000000000000000000000000000000090047f0100000000000000000000000000000000000000000000000000000000000000027effffffffffffffffffffffffffffffffffffffffffffffffffffffffffffff1916101580156200283a575060397f0100000000000000000000000000000000000000000000000000000000000000028382815181101515620027ca57fe5b9060200101517f010000000000000000000000000000000000000000000000000000000000000090047f0100000000000000000000000000000000000000000000000000000000000000027effffffffffffffffffffffffffffffffffffffffffffffffffffffffffffff191611155b15620028c857603083828151811015156200285157fe5b9060200101517f010000000000000000000000000000000000000000000000000000000000000090047f0100000000000000000000000000000000000000000000000000000000000000027f0100000000000000000000000000000000000000000000000000000000000000900403600a83020191505b8080600101915050620026e3565b819350505050919050565b6101c06040519081016040528060008152602001620028ff62002aa0565b81526020016200290e62002aa0565b81526020016200291d62002aa0565b81526020016200292c62002aa0565b8152602001600081526020016000815260200160008152602001600073ffffffffffffffffffffffffffffffffffffffff168152602001600081526020016000815260200160008152602001600060028111156200298657fe5b8152602001600060018111156200299957fe5b81525090565b828054600181600116156101000203166002900490600052602060002090601f016020900481019282601f10620029e257805160ff191683800117855562002a13565b8280016001018555821562002a13579182015b8281111562002a12578251825591602001919060010190620029f5565b5b50905062002a22919062002ab4565b5090565b602060405190810160405280600081525090565b6040516110038062002add83390190565b608060405190810160405280600073ffffffffffffffffffffffffffffffffffffffff16815260200160008152602001600081526020016000151581525090565b602060405190810160405280600081525090565b602060405190810160405280600081525090565b62002ad991905b8082111562002ad557600081600090555060010162002abb565b5090565b9056006060604052604051608080611003833981016040528080519060200190919080519060200190919080519060200190919080519060200190919050508360008190555082600160006101000a81548173ffffffffffffffffffffffffffffffffffffffff021916908373ffffffffffffffffffffffffffffffffffffffff16021790555081600260006101000a81548173ffffffffffffffffffffffffffffffffffffffff021916908373ffffffffffffffffffffffffffffffffffffffff16021790555080600360006101000a81548173ffffffffffffffffffffffffffffffffffffffff021916908373ffffffffffffffffffffffffffffffffffffffff160217905550346004819055506000600560006101000a81548160ff0219169083151502179055506002600660008473ffffffffffffffffffffffffffffffffffffffff1673ffffffffffffffffffffffffffffffffffffffff16815260200190815260200160002060006101000a81548160ff0219169083600281111561018357fe5b02179055506002600660008573ffffffffffffffffffffffffffffffffffffffff1673ffffffffffffffffffffffffffffffffffffffff16815260200190815260200160002060006101000a81548160ff021916908360028111156101e457fe5b02179055506002600660008373ffffffffffffffffffffffffffffffffffffffff1673ffffffffffffffffffffffffffffffffffffffff16815260200190815260200160002060006101000a81548160ff0219169083600281111561024557fe5b02179055507f7527d0b8d16913563c5afb8fa2dc5b6257355ff7dfbefbdcfc1cf812a0f97c5e84848484604051808581526020018473ffffffffffffffffffffffffffffffffffffffff1673ffffffffffffffffffffffffffffffffffffffff1681526020018373ffffffffffffffffffffffffffffffffffffffff1673ffffffffffffffffffffffffffffffffffffffff1681526020018273ffffffffffffffffffffffffffffffffffffffff1673ffffffffffffffffffffffffffffffffffffffff16815260200194505050505060405180910390a150505050610cd3806103306000396000f3006060604052600436106100af576000357c0100000000000000000000000000000000000000000000000000000000900463ffffffff16806308551a53146100b45780630bda4dbf1461010957806358aad10b146101325780637150d8ae1461016b578063a97d1b10146101c0578063aa8c217c146101f9578063b8d08db214610222578063c5ce39111461024b578063d1a52e3014610274578063f3d25904146102a1578063fe25e00a14610375575b600080fd5b34156100bf57600080fd5b6100c76103ca565b604051808273ffffffffffffffffffffffffffffffffffffffff1673ffffffffffffffffffffffffffffffffffffffff16815260200191505060405180910390f35b341561011457600080fd5b61011c6103f0565b6040518082815260200191505060405180910390f35b341561013d57600080fd5b610169600480803573ffffffffffffffffffffffffffffffffffffffff169060200190919050506103f6565b005b341561017657600080fd5b61017e6107c8565b604051808273ffffffffffffffffffffffffffffffffffffffff1673ffffffffffffffffffffffffffffffffffffffff16815260200191505060405180910390f35b34156101cb57600080fd5b6101f7600480803573ffffffffffffffffffffffffffffffffffffffff169060200190919050506107ee565b005b341561020457600080fd5b61020c610bc0565b6040518082815260200191505060405180910390f35b341561022d57600080fd5b610235610bc6565b6040518082815260200191505060405180910390f35b341561025657600080fd5b61025e610bcc565b6040518082815260200191505060405180910390f35b341561027f57600080fd5b610287610bd2565b604051808215151515815260200191505060405180910390f35b34156102ac57600080fd5b6102b4610be5565b604051808773ffffffffffffffffffffffffffffffffffffffff1673ffffffffffffffffffffffffffffffffffffffff1681526020018673ffffffffffffffffffffffffffffffffffffffff1673ffffffffffffffffffffffffffffffffffffffff1681526020018573ffffffffffffffffffffffffffffffffffffffff1673ffffffffffffffffffffffffffffffffffffffff16815260200184151515158152602001838152602001828152602001965050505050505060405180910390f35b341561038057600080fd5b610388610c81565b604051808273ffffffffffffffffffffffffffffffffffffffff1673ffffffffffffffffffffffffffffffffffffffff16815260200191505060405180910390f35b600260009054906101000a900473ffffffffffffffffffffffffffffffffffffffff1681565b60085481565b600560009054906101000a900460ff1615151561041257600080fd5b60028081111561041e57fe5b600660008373ffffffffffffffffffffffffffffffffffffffff1673ffffffffffffffffffffffffffffffffffffffff16815260200190815260200160002060009054906101000a900460ff16600281111561047657fe5b14151561048257600080fd5b600160009054906101000a900473ffffffffffffffffffffffffffffffffffffffff1673ffffffffffffffffffffffffffffffffffffffff168173ffffffffffffffffffffffffffffffffffffffff16148061052b5750600260009054906101000a900473ffffffffffffffffffffffffffffffffffffffff1673ffffffffffffffffffffffffffffffffffffffff168173ffffffffffffffffffffffffffffffffffffffff16145b806105835750600360009054906101000a900473ffffffffffffffffffffffffffffffffffffffff1673ffffffffffffffffffffffffffffffffffffffff168173ffffffffffffffffffffffffffffffffffffffff16145b156106a1576000600660008373ffffffffffffffffffffffffffffffffffffffff1673ffffffffffffffffffffffffffffffffffffffff16815260200190815260200160002060006101000a81548160ff021916908360028111156105e457fe5b021790555060016007600082825401925050819055507fe31e37941fee7dca6bb1597da71841499d8cd0dfc5553e0889f6d1ca6038ce966000548260405180838152602001806020018373ffffffffffffffffffffffffffffffffffffffff1673ffffffffffffffffffffffffffffffffffffffff168152602001828103825260078152602001807f72656c6561736500000000000000000000000000000000000000000000000000815250602001935050505060405180910390a15b600260075414156107c557600260009054906101000a900473ffffffffffffffffffffffffffffffffffffffff1673ffffffffffffffffffffffffffffffffffffffff166108fc6004549081150290604051600060405180830381858888f19350505050151561071057600080fd5b6001600560006101000a81548160ff0219169083151502179055507fdde1058856b8611b1f49ef2ebaef10c0441e48e8a6cbbec1ebdcbfb1862b57b4600054600454600260009054906101000a900473ffffffffffffffffffffffffffffffffffffffff16604051808481526020018381526020018273ffffffffffffffffffffffffffffffffffffffff1673ffffffffffffffffffffffffffffffffffffffff168152602001935050505060405180910390a15b50565b600160009054906101000a900473ffffffffffffffffffffffffffffffffffffffff1681565b600560009054906101000a900460ff1615151561080a57600080fd5b60028081111561081657fe5b600660008373ffffffffffffffffffffffffffffffffffffffff1673ffffffffffffffffffffffffffffffffffffffff16815260200190815260200160002060009054906101000a900460ff16600281111561086e57fe5b14151561087a57600080fd5b600160009054906101000a900473ffffffffffffffffffffffffffffffffffffffff1673ffffffffffffffffffffffffffffffffffffffff168173ffffffffffffffffffffffffffffffffffffffff1614806109235750600260009054906101000a900473ffffffffffffffffffffffffffffffffffffffff1673ffffffffffffffffffffffffffffffffffffffff168173ffffffffffffffffffffffffffffffffffffffff16145b8061097b5750600360009054906101000a900473ffffffffffffffffffffffffffffffffffffffff1673ffffffffffffffffffffffffffffffffffffffff168173ffffffffffffffffffffffffffffffffffffffff16145b15610a99576001600660008373ffffffffffffffffffffffffffffffffffffffff1673ffffffffffffffffffffffffffffffffffffffff16815260200190815260200160002060006101000a81548160ff021916908360028111156109dc57fe5b021790555060016008600082825401925050819055507fe31e37941fee7dca6bb1597da71841499d8cd0dfc5553e0889f6d1ca6038ce966000548260405180838152602001806020018373ffffffffffffffffffffffffffffffffffffffff1673ffffffffffffffffffffffffffffffffffffffff168152602001828103825260068152602001807f726566756e640000000000000000000000000000000000000000000000000000815250602001935050505060405180910390a15b60026008541415610bbd57600160009054906101000a900473ffffffffffffffffffffffffffffffffffffffff1673ffffffffffffffffffffffffffffffffffffffff166108fc6004549081150290604051600060405180830381858888f193505050501515610b0857600080fd5b6001600560006101000a81548160ff0219169083151502179055507fdde1058856b8611b1f49ef2ebaef10c0441e48e8a6cbbec1ebdcbfb1862b57b4600054600454600160009054906101000a900473ffffffffffffffffffffffffffffffffffffffff16604051808481526020018381526020018273ffffffffffffffffffffffffffffffffffffffff1673ffffffffffffffffffffffffffffffffffffffff168152602001935050505060405180910390a15b50565b60045481565b60075481565b60005481565b600560009054906101000a900460ff1681565b600080600080600080600160009054906101000a900473ffffffffffffffffffffffffffffffffffffffff16600260009054906101000a900473ffffffffffffffffffffffffffffffffffffffff16600360009054906101000a900473ffffffffffffffffffffffffffffffffffffffff16600560009054906101000a900460ff16600754600854955095509550955095509550909192939495565b600360009054906101000a900473ffffffffffffffffffffffffffffffffffffffff16815600a165627a7a7230582058d6a8ec499ccbd12b67864ff884a62bbb38e47b99dc49e77d2a5218625bdc0a0029a165627a7a7230582047b8437f291464a4ff85d9014fa1a715a20059f7117b0b285f91c46167e2c4820029",
  "source": "pragma solidity ^0.4.13;\n\nimport \"contracts/Escrow.sol\";\n\ncontract EcommerceStore {\n  enum ProductStatus {Open, Sold, Unsold}\n  enum ProductCondition {New, Used}\n\n  uint public productIndex;\n  mapping(address => mapping(uint => Product)) stores;\n  mapping(uint => address) productIdInStore;\n\n  mapping(uint => address) productEscrow;\n\n  struct Bid {\n    address bidder;\n    uint productId;\n    uint value;\n    bool revealed;\n  }\n\n  struct Product {\n    uint id;\n    string name;\n    string category;\n    string imageLink;\n    string descLink;\n    uint auctionStartTime;\n    uint auctionEndTime;\n    uint startPrice;\n    address highestBidder;\n    uint highestBid;\n    uint secondHighestBid;\n    uint totalBids;\n    ProductStatus status;\n    ProductCondition condition;\n\n    mapping(address => mapping(bytes32 => Bid)) bids;\n  }\n\n  function EcommerceStore() public {\n    productIndex = 0;\n  }\n\n  function addProductToStore(string _name,\n    string _category,\n    string _imageLink,\n    string _descLink,\n    uint _auctionStartTime,\n    uint _auctionEndTime,\n    uint _startPrice,\n    uint _productCondition) public {\n    require(_auctionStartTime < _auctionEndTime);\n    productIndex += 1;\n    Product memory product = Product(productIndex, _name, _category, _imageLink, _descLink,\n      _auctionStartTime, _auctionEndTime, _startPrice, 0, 0, 0, 0, ProductStatus.Open, ProductCondition(_productCondition));\n    stores[msg.sender][productIndex] = product;\n    productIdInStore[productIndex] = msg.sender;\n  }\n\n  function getProduct(uint _productId) view public returns (uint, string, string, string, string, uint, uint, uint, ProductStatus, ProductCondition) {\n    Product memory product = stores[productIdInStore[_productId]][_productId];\n    return (product.id, product.name, product.category,\n    product.imageLink, product.descLink,\n    product.auctionStartTime, product.auctionEndTime,\n    product.startPrice, product.status, product.condition);\n  }\n\n  function bid(uint _productId, bytes32 _bid) payable public returns (bool) {\n    Product storage product = stores[productIdInStore[_productId]][_productId];\n    require(now >= product.auctionStartTime);\n    require(now <= product.auctionEndTime);\n    require(msg.value > product.startPrice);\n    require(product.bids[msg.sender][_bid].bidder == 0);\n\n    product.bids[msg.sender][_bid] = Bid(msg.sender, _productId, msg.value, false);\n    product.totalBids += 1;\n\n    return true;\n  }\n\n  function revealBid(uint _productId, string _amount, string _secret) public {\n    Product storage product = stores[productIdInStore[_productId]][_productId];\n    require(now > product.auctionEndTime);\n    bytes32 sealedBid = sha3(_amount, _secret);\n\n    Bid memory bidInfo = product.bids[msg.sender][sealedBid];\n    require(bidInfo.bidder > 0);\n    require(bidInfo.revealed == false);\n\n    uint refund;\n\n    uint amount = stringToUint(_amount);\n\n    if (bidInfo.value < amount) {\n      refund = bidInfo.value;\n    } else {\n      // if first to reveal a bid\n      if (address(product.highestBidder) == 0) {\n        product.highestBidder = msg.sender;\n        product.highestBid = amount;\n        product.secondHighestBid = product.startPrice;\n        refund = bidInfo.value - amount;\n      } else {\n        if (amount > product.highestBid) {\n          product.secondHighestBid = product.highestBid;\n          product.highestBidder.transfer(product.highestBid);\n          product.highestBidder = msg.sender;\n          product.highestBid = amount;\n          refund = bidInfo.value - amount;\n        } else if (amount > product.secondHighestBid) {\n          product.secondHighestBid = amount;\n          refund = bidInfo.value;\n        } else {\n          refund = bidInfo.value;\n        }\n      }\n    }\n\n    if (refund > 0) {\n      msg.sender.transfer(refund);\n      product.bids[msg.sender][sealedBid].revealed = true;\n    }\n  }\n\n  function finalizeAuction(uint _productId) public {\n    // originally product was declared as memory var,\n    // however, this will result in copying the object from state store to memory\n    // which results in that changes could not be committed back\n    Product product = stores[productIdInStore[_productId]][_productId];\n\n    require(now > product.auctionEndTime);\n    require(product.status == ProductStatus.Open);\n    require(product.highestBidder != msg.sender);\n    require(productIdInStore[_productId] != msg.sender);\n\n    if (product.totalBids == 0) {\n      product.status = ProductStatus.Unsold;\n    } else {\n      Escrow escrow = (new Escrow).value(product.secondHighestBid)(\n        _productId,\n        product.highestBidder,\n        productIdInStore[_productId],\n        msg.sender);\n      productEscrow[_productId] = address(escrow);\n      product.status = ProductStatus.Sold;\n\n      uint refund = product.highestBid - product.secondHighestBid;\n      product.highestBidder.transfer(refund);\n    }\n  }\n\n  function releaseAmountToSeller(uint _productId) public {\n    Escrow(productEscrow[_productId]).releaseAmountToSeller(msg.sender);\n  }\n\n  function refundAmountToBuyer(uint _productId) public {\n    Escrow(productEscrow[_productId]).refundAmountToBuyer(msg.sender);\n  }\n\n  function escrowAddressForProduct(uint _productId) view public returns (address) {\n    return productEscrow[_productId];\n  }\n\n  function escrowInfo(uint _productId) view public returns (address, address, address, bool, uint, uint) {\n    return Escrow(productEscrow[_productId]).escrowInfo();\n  }\n\n\n  // helper functions\n  function highestBidderInfo(uint _productId) view public returns (address, uint, uint) {\n    Product memory product = stores[productIdInStore[_productId]][_productId];\n    return (product.highestBidder, product.highestBid, product.secondHighestBid);\n  }\n\n  function totalBids(uint _productId) view public returns (uint) {\n    Product memory product = stores[productIdInStore[_productId]][_productId];\n    return product.totalBids;\n  }\n\n  function stringToUint(string s) pure private returns (uint) {\n    bytes memory b = bytes(s);\n    uint result = 0;\n    for (uint i = 0; i < b.length; i++) {\n      if (b[i] >= 48 && b[i] <= 57) {\n        result = result * 10 + (uint(b[i]) - 48);\n      }\n    }\n\n    return result;\n  }\n}\n\n\n\n\n\n\n\n\n\n\n\n",
  "sourcePath": "/Users/Vishnu/Dapp-ebay/contracts/EcommerceStore.sol",
  "compiler": {
    "name": "solc",
    "version": "0.4.21+commit.dfe3193c.Emscripten.clang"
  },
  "schemaVersion": "2.0.0",
  "updatedAt": "2018-06-06T01:04:08.763Z"
}